S014000046696E616C5F70726F6A65742E7372656333
S11300000C942A000C943C000C943C000C943C008E
S11300100C943C000C943C000C943C000C943C006C
S11300200C943C000C943C000C943C000C943C005C
S11300300C943C000C943C000C943C000C943C004C
S11300400C9449000C943C000C943C000C943C002F
S11300500C943C0011241FBECFE5D8E0DEBFCDBF19
S113006020E0A0E6B0E001C01D92A236B207E1F79D
S11300700E94CD000C9443010C940000789486B146
S11300808F6B86B987B1806487B9089584B195B1BF
S113009008951F920F920FB60F9211242F933F933E
S11300A04F935F936F937F938F939F93AF93BF937C
S11300B0EF93FF930E9446008093610087B18134DF
S11300C0E1F018F4803431F054C0823449F18334BF
S11300D0F1F14FC080916100843660F081E30E94A9
S11300E0FE002FEF81EE94E0215080409040E1F734
S11300F000C0000081E487B93CC08091610084366F
S113010060F082E30E94FE002FEF81EE94E0215024
S113011080409040E1F700C0000082E487B929C024
S113012080916100843680F080916100893C60F4A4
S113013083E30E94FE002FEF81EE94E02150804083
S11301409040E1F700C0000083E487B912C08091B9
S11301506100863960F084E30E94FE002FEF81EE97
S113016094E0215080409040E1F700C0000080E41A
S113017087B986B1806486B9FF91EF91BF91AF9141
S11301809F918F917F916F915F914F913F912F91AB
S11301900F900FBE0F901F9018950E943E0080E8AC
S11301A095E20E94E40086B1806486B98FEF81BB3A
S11301B081E084BB15BA84B3826084BB85B382605A
S11301C085BB1ABA1BBAFFCF21B32E7F21BB21B343
S11301D0226021BB2AB128612AB920B5266820BD36
S11301E09C0140E050E060E472E48FE090E00E9403
S11301F002012150310929B930BD08958CB95E9BA3
S1130200FECF0895052E97FB1EF400940E94190159
S113021057FD07D00E94210107FC03D04EF40C9433
S1130220190150954095309521953F4F4F4F5F4FA1
S1130230089590958095709561957F4F8F4F9F4F4E
S11302400895A1E21A2EAA1BBB1BFD010DC0AA1F13
S1130250BB1FEE1FFF1FA217B307E407F50720F02B
S1130260A21BB30BE40BF50B661F771F881F991FA6
S11302701A9469F760957095809590959B01AC01EF
S10D0280BD01CF010895F894FFCFEB
S9030000FC
