S016000054455354204443204D4F544F52532E7372656323
S11300000C942A000C9434000C9434000C943400A6
S11300100C9434000C9434000C9434000C9434008C
S11300200C9434000C9434000C9434000C9434007C
S11300300C9434000C9434000C9434000C9434006C
S11300400C9434000C9434000C9434000C9434005C
S11300500C94340011241FBECFE5D8E0DEBFCDBF21
S11300600E947F010C948D010C94000041E063E038
S113007081E00E949D0041E063E081E00E949D00D8
S113008041E063E082E00E949D0041E064E082E0A0
S11300900E949D0041E065E082E00E949D0041E0F5
S11300A066E082E00E949D000895CF93C62F8823C6
S11300B019F0813009F13FC041E063E081E00E9422
S11300C00E01CC2319F0C13061F035C041E063E08A
S11300D082E00E940E0140E064E082E00E940E0192
S11300E02AC040E063E082E00E940E0141E064E047
S11300F082E00E940E011FC041E063E081E00E94A3
S11301000E01CC2319F0C13061F015C041E065E067
S113011082E00E940E0140E066E082E00E940E014F
S11301200AC040E065E082E00E940E0141E066E022
S113013082E00E940E01CF910895442319F04130CA
S1130140C9F10895813091F028F08230D9F08330DC
S113015029F108952AB381E090E002C0880F991F25
S11301606A95E2F7809582238ABB089527B381E0DC
S113017090E002C0880F991F6A95E2F78095822368
S113018087BB089524B381E090E002C0880F991FD3
S11301906A95E2F78095822384BB089521B381E0B8
S11301A090E002C0880F991F6A95E2F78095822338
S11301B081BB0895813089F028F08230C9F0833002
S11301C011F108952AB381E090E002C0880F991FCD
S11301D06A95E2F7822B8ABB089527B381E090E009
S11301E002C0880F991F6A95E2F7822B87BB089596
S11301F024B381E090E002C0880F991F6A95E2F76A
S1130200822B84BB089521B381E090E002C0880F63
S1130210991F6A95E2F7822B81BB0895442319F054
S11302204130C9F10895813091F028F08230D9F03D
S1130230833029F108952BB381E090E002C0880F48
S1130240991F6A95E2F7809582238BBB089528B3A2
S113025081E090E002C0880F991F6A95E2F78095CB
S1130260822388BB089525B381E090E002C0880F03
S1130270991F6A95E2F78095822385BB089522B37E
S113028081E090E002C0880F991F6A95E2F780959B
S1130290822382BB0895813089F028F08230C9F02E
S11302A0833011F108952BB381E090E002C0880FF0
S11302B0991F6A95E2F7822B8BBB089528B381E0DE
S11302C090E002C0880F991F6A95E2F7822B88BBE1
S11302D0089525B381E090E002C0880F991F6A95C4
S11302E0E2F7822B85BB089522B381E090E002C03F
S11302F0880F991F6A95E2F7822B82BB08950E94AA
S1130300360087B3886087BB60E080E00E945500B8
S111031061E081E00E945500F7CFF894FFCF22
S9030000FC
