S014000046696E616C5F70726F6A65742E7372656333
S11300000C942A000C943C000C943C000C943C008E
S11300100C943C000C943C000C943C000C943C006C
S11300200C943C000C943C000C943C000C943C005C
S11300300C943C000C943C000C943C000C943C004C
S11300400C943C000C943C000C943C000C943C003C
S11300500C943C0011241FBECFE5D8E0DEBFCDBF19
S113006020E0A0E6B0E001C01D92A136B207E1F79E
S11300700E943E000C9439010C94000080E895E243
S11300800E94DA000E9483008FEF81BB84BB87B398
S1130090886087BB87B3806187BB0E94F40080932C
S11300A0600080916000813041F460E080E00E9453
S11300B0960080E00E94C700F0CF809160008230FB
S11300C041F460E081E00E94960081E00E94C70054
S11300D0E4CF80916000833049F460E080E00E94C6
S11300E0960060E081E00E949600D7CF8091600086
S11300F0843099F661E080E00E94960061E081E03E
S11301000E949600CACF87B3886087BB87B380619B
S113011087BB85B3886085BB85B3806185BB85B3A8
S1130120806285BB85B3806485BB0895882319F0FC
S11301308130B9F0089588B3886088BB662319F0CC
S1130140613041F0089585B3886085BB85B38F7EA7
S113015085BB089585B3877F85BB85B3806185BBE7
S1130160089588B3806188BB662319F0613041F03B
S1130170089585B3806285BB85B38F7B85BB089565
S113018085B38F7D85BB85B3806485BB0895882343
S113019019F0813041F0089585B3877F85BB85B31D
S11301A08F7E85BB089585B38F7D85BB85B38F7B9B
S11301B085BB089521B32E7F21BB21B3226021BBCF
S11301C02AB128612AB920B5266820BD9C0140E0E7
S11301D050E060E472E48FE090E00E94F800215067
S11301E0310929B930BD08955F9BFECF8CB10895C4
S11301F0052E97FB1EF400940E940F0157FD07D0B3
S11302000E94170107FC03D04EF40C940F01509583
S11302104095309521953F4F4F4F5F4F08959095EE
S11302208095709561957F4F8F4F9F4F0895A1E200
S11302301A2EAA1BBB1BFD010DC0AA1FBB1FEE1F5C
S1130240FF1FA217B307E407F50720F0A21BB30BA7
S1130250E40BF50B661F771F881F991F1A9469F723
S113026060957095809590959B01AC01BD01CF017F
S10902700895F894FFCF8D
S9030000FC
