:100000000C942A000C943C000C943C000C943C0092
:100010000C943C000C943C000C943C000C943C0070
:100020000C943C000C943C000C943C000C943C0060
:100030000C943C000C943C000C943C000C943C0050
:100040000C943C000C943C000C943C000C943C0040
:100050000C943C0011241FBECFE5D8E0DEBFCDBF1D
:1000600020E0A0E6B0E001C01D92A236B207E1F7A1
:100070000E943E000C9426010C94000080E895E25A
:100080000E94C7000E94E1008093600080916000A0
:10009000863449F460E080E00E94830060E081E003
:1000A0000E948300EFCF80916000833539F480E0B7
:1000B0000E94B40081E00E94B400E4CF809160000F
:1000C000823449F461E080E00E94830061E081E0D5
:1000D0000E948300D7CF809160008C3441F460E0AF
:1000E00080E00E94830081E00E94B400CBCF809129
:1000F0006000823539F660E081E00E94830080E094
:100100000E94B400BFCF882319F08130B9F0089560
:1001100088B3886088BB662319F0613041F0089588
:1001200085B3886085BB85B38F7E85BB089585B315
:10013000877F85BB85B3806185BB089588B3806167
:1001400088BB662319F0613041F0089585B3806261
:1001500085BB85B38F7B85BB089585B38F7D85BBBC
:1001600085B3806485BB0895882319F0813041F000
:10017000089585B3877F85BB85B38F7E85BB089542
:1001800085B38F7D85BB85B38F7B85BB089521B3F8
:100190002E7F21BB21B3226021BB2AB128612AB95D
:1001A00020B5266820BD9C0140E050E060E472E488
:1001B0008FE090E00E94E5002150310929B930BD5F
:1001C00008955F9BFECF8CB10895052E97FB1EF41A
:1001D00000940E94FC0057FD07D00E94040107FC18
:1001E00003D04EF40C94FC00509540953095219529
:1001F0003F4F4F4F5F4F0895909580957095619553
:100200007F4F8F4F9F4F0895A1E21A2EAA1BBB1B51
:10021000FD010DC0AA1FBB1FEE1FFF1FA217B307D2
:10022000E407F50720F0A21BB30BE40BF50B661FE8
:10023000771F881F991F1A9469F7609570958095AC
:1002400090959B01AC01BD01CF010895F894FFCFBB
:00000001FF
